{
  "_format": "hh-sol-artifact-1",
  "contractName": "DepositRouter",
  "sourceName": "contracts/DepositRouter.sol",
  "abi": [
    {
      "inputs": [
        {
          "internalType": "address",
          "name": "_treasury",
          "type": "address"
        }
      ],
      "stateMutability": "nonpayable",
      "type": "constructor"
    },
    {
      "inputs": [],
      "name": "ECDSAInvalidSignature",
      "type": "error"
    },
    {
      "inputs": [
        {
          "internalType": "uint256",
          "name": "length",
          "type": "uint256"
        }
      ],
      "name": "ECDSAInvalidSignatureLength",
      "type": "error"
    },
    {
      "inputs": [
        {
          "internalType": "bytes32",
          "name": "s",
          "type": "bytes32"
        }
      ],
      "name": "ECDSAInvalidSignatureS",
      "type": "error"
    },
    {
      "inputs": [],
      "name": "InvalidShortString",
      "type": "error"
    },
    {
      "inputs": [
        {
          "internalType": "address",
          "name": "owner",
          "type": "address"
        }
      ],
      "name": "OwnableInvalidOwner",
      "type": "error"
    },
    {
      "inputs": [
        {
          "internalType": "address",
          "name": "account",
          "type": "address"
        }
      ],
      "name": "OwnableUnauthorizedAccount",
      "type": "error"
    },
    {
      "inputs": [
        {
          "internalType": "address",
          "name": "token",
          "type": "address"
        }
      ],
      "name": "SafeERC20FailedOperation",
      "type": "error"
    },
    {
      "inputs": [
        {
          "internalType": "string",
          "name": "str",
          "type": "string"
        }
      ],
      "name": "StringTooLong",
      "type": "error"
    },
    {
      "anonymous": false,
      "inputs": [
        {
          "indexed": true,
          "internalType": "bytes32",
          "name": "intentHash",
          "type": "bytes32"
        },
        {
          "indexed": true,
          "internalType": "address",
          "name": "user",
          "type": "address"
        },
        {
          "indexed": true,
          "internalType": "address",
          "name": "vault",
          "type": "address"
        },
        {
          "indexed": false,
          "internalType": "uint256",
          "name": "amount",
          "type": "uint256"
        }
      ],
      "name": "AsyncDepositRequested",
      "type": "event"
    },
    {
      "anonymous": false,
      "inputs": [
        {
          "indexed": true,
          "internalType": "bytes32",
          "name": "intentHash",
          "type": "bytes32"
        },
        {
          "indexed": true,
          "internalType": "address",
          "name": "user",
          "type": "address"
        },
        {
          "indexed": true,
          "internalType": "address",
          "name": "vault",
          "type": "address"
        },
        {
          "indexed": false,
          "internalType": "uint256",
          "name": "amount",
          "type": "uint256"
        },
        {
          "indexed": false,
          "internalType": "bool",
          "name": "isAsync",
          "type": "bool"
        }
      ],
      "name": "DepositExecuted",
      "type": "event"
    },
    {
      "anonymous": false,
      "inputs": [
        {
          "indexed": true,
          "internalType": "bytes32",
          "name": "intentHash",
          "type": "bytes32"
        },
        {
          "indexed": true,
          "internalType": "address",
          "name": "user",
          "type": "address"
        },
        {
          "indexed": true,
          "internalType": "address",
          "name": "vault",
          "type": "address"
        },
        {
          "indexed": false,
          "internalType": "address",
          "name": "asset",
          "type": "address"
        },
        {
          "indexed": false,
          "internalType": "uint256",
          "name": "amount",
          "type": "uint256"
        },
        {
          "indexed": false,
          "internalType": "address",
          "name": "kolAddress",
          "type": "address"
        },
        {
          "indexed": false,
          "internalType": "bool",
          "name": "isAsync",
          "type": "bool"
        }
      ],
      "name": "DepositIntentVerified",
      "type": "event"
    },
    {
      "anonymous": false,
      "inputs": [],
      "name": "EIP712DomainChanged",
      "type": "event"
    },
    {
      "anonymous": false,
      "inputs": [
        {
          "components": [
            {
              "internalType": "address",
              "name": "user",
              "type": "address"
            },
            {
              "internalType": "address",
              "name": "vault",
              "type": "address"
            },
            {
              "internalType": "address",
              "name": "asset",
              "type": "address"
            },
            {
              "internalType": "uint256",
              "name": "amount",
              "type": "uint256"
            },
            {
              "internalType": "uint256",
              "name": "nonce",
              "type": "uint256"
            },
            {
              "internalType": "uint256",
              "name": "deadline",
              "type": "uint256"
            },
            {
              "internalType": "address",
              "name": "kolAddress",
              "type": "address"
            }
          ],
          "indexed": true,
          "internalType": "struct DepositRouter.DepositIntent",
          "name": "intent",
          "type": "tuple"
        }
      ],
      "name": "EventCheck",
      "type": "event"
    },
    {
      "anonymous": false,
      "inputs": [
        {
          "indexed": true,
          "internalType": "bytes32",
          "name": "intentHash",
          "type": "bytes32"
        },
        {
          "indexed": true,
          "internalType": "address",
          "name": "kolAddress",
          "type": "address"
        },
        {
          "indexed": false,
          "internalType": "uint256",
          "name": "totalFee",
          "type": "uint256"
        },
        {
          "indexed": false,
          "internalType": "uint256",
          "name": "kolFee",
          "type": "uint256"
        },
        {
          "indexed": false,
          "internalType": "uint256",
          "name": "yieldoFee",
          "type": "uint256"
        }
      ],
      "name": "FeeCollected",
      "type": "event"
    },
    {
      "anonymous": false,
      "inputs": [
        {
          "indexed": true,
          "internalType": "address",
          "name": "previousOwner",
          "type": "address"
        },
        {
          "indexed": true,
          "internalType": "address",
          "name": "newOwner",
          "type": "address"
        }
      ],
      "name": "OwnershipTransferred",
      "type": "event"
    },
    {
      "inputs": [],
      "name": "DEPOSIT_INTENT_TYPEHASH",
      "outputs": [
        {
          "internalType": "bytes32",
          "name": "",
          "type": "bytes32"
        }
      ],
      "stateMutability": "view",
      "type": "function"
    },
    {
      "inputs": [],
      "name": "FEE_BPS",
      "outputs": [
        {
          "internalType": "uint256",
          "name": "",
          "type": "uint256"
        }
      ],
      "stateMutability": "view",
      "type": "function"
    },
    {
      "inputs": [],
      "name": "KOL_FEE_SHARE",
      "outputs": [
        {
          "internalType": "uint256",
          "name": "",
          "type": "uint256"
        }
      ],
      "stateMutability": "view",
      "type": "function"
    },
    {
      "inputs": [],
      "name": "YIELDO_FEE_SHARE",
      "outputs": [
        {
          "internalType": "uint256",
          "name": "",
          "type": "uint256"
        }
      ],
      "stateMutability": "view",
      "type": "function"
    },
    {
      "inputs": [
        {
          "internalType": "bytes32",
          "name": "intentHash",
          "type": "bytes32"
        }
      ],
      "name": "claimAsyncDeposit",
      "outputs": [],
      "stateMutability": "nonpayable",
      "type": "function"
    },
    {
      "inputs": [
        {
          "internalType": "bytes32",
          "name": "",
          "type": "bytes32"
        }
      ],
      "name": "deposits",
      "outputs": [
        {
          "internalType": "address",
          "name": "user",
          "type": "address"
        },
        {
          "internalType": "address",
          "name": "vault",
          "type": "address"
        },
        {
          "internalType": "address",
          "name": "asset",
          "type": "address"
        },
        {
          "internalType": "address",
          "name": "kolAddress",
          "type": "address"
        },
        {
          "internalType": "uint256",
          "name": "amount",
          "type": "uint256"
        },
        {
          "internalType": "uint256",
          "name": "requestId",
          "type": "uint256"
        },
        {
          "internalType": "uint64",
          "name": "timestamp",
          "type": "uint64"
        },
        {
          "internalType": "bool",
          "name": "isAsync",
          "type": "bool"
        },
        {
          "internalType": "bytes32",
          "name": "intentHash",
          "type": "bytes32"
        }
      ],
      "stateMutability": "view",
      "type": "function"
    },
    {
      "inputs": [],
      "name": "eip712Domain",
      "outputs": [
        {
          "internalType": "bytes1",
          "name": "fields",
          "type": "bytes1"
        },
        {
          "internalType": "string",
          "name": "name",
          "type": "string"
        },
        {
          "internalType": "string",
          "name": "version",
          "type": "string"
        },
        {
          "internalType": "uint256",
          "name": "chainId",
          "type": "uint256"
        },
        {
          "internalType": "address",
          "name": "verifyingContract",
          "type": "address"
        },
        {
          "internalType": "bytes32",
          "name": "salt",
          "type": "bytes32"
        },
        {
          "internalType": "uint256[]",
          "name": "extensions",
          "type": "uint256[]"
        }
      ],
      "stateMutability": "view",
      "type": "function"
    },
    {
      "inputs": [],
      "name": "feesEnabled",
      "outputs": [
        {
          "internalType": "bool",
          "name": "",
          "type": "bool"
        }
      ],
      "stateMutability": "view",
      "type": "function"
    },
    {
      "inputs": [
        {
          "internalType": "bytes32",
          "name": "intentHash",
          "type": "bytes32"
        }
      ],
      "name": "getDeposit",
      "outputs": [
        {
          "components": [
            {
              "internalType": "address",
              "name": "user",
              "type": "address"
            },
            {
              "internalType": "address",
              "name": "vault",
              "type": "address"
            },
            {
              "internalType": "address",
              "name": "asset",
              "type": "address"
            },
            {
              "internalType": "address",
              "name": "kolAddress",
              "type": "address"
            },
            {
              "internalType": "uint256",
              "name": "amount",
              "type": "uint256"
            },
            {
              "internalType": "uint256",
              "name": "requestId",
              "type": "uint256"
            },
            {
              "internalType": "uint64",
              "name": "timestamp",
              "type": "uint64"
            },
            {
              "internalType": "bool",
              "name": "isAsync",
              "type": "bool"
            },
            {
              "internalType": "bytes32",
              "name": "intentHash",
              "type": "bytes32"
            }
          ],
          "internalType": "struct DepositRouter.DepositRecord",
          "name": "",
          "type": "tuple"
        }
      ],
      "stateMutability": "view",
      "type": "function"
    },
    {
      "inputs": [],
      "name": "owner",
      "outputs": [
        {
          "internalType": "address",
          "name": "",
          "type": "address"
        }
      ],
      "stateMutability": "view",
      "type": "function"
    },
    {
      "inputs": [],
      "name": "renounceOwnership",
      "outputs": [],
      "stateMutability": "nonpayable",
      "type": "function"
    },
    {
      "inputs": [
        {
          "internalType": "bool",
          "name": "_enabled",
          "type": "bool"
        }
      ],
      "name": "setFeesEnabled",
      "outputs": [],
      "stateMutability": "nonpayable",
      "type": "function"
    },
    {
      "inputs": [
        {
          "internalType": "address",
          "name": "_treasury",
          "type": "address"
        }
      ],
      "name": "setTreasury",
      "outputs": [],
      "stateMutability": "nonpayable",
      "type": "function"
    },
    {
      "inputs": [
        {
          "internalType": "address",
          "name": "newOwner",
          "type": "address"
        }
      ],
      "name": "transferOwnership",
      "outputs": [],
      "stateMutability": "nonpayable",
      "type": "function"
    },
    {
      "inputs": [],
      "name": "treasury",
      "outputs": [
        {
          "internalType": "address",
          "name": "",
          "type": "address"
        }
      ],
      "stateMutability": "view",
      "type": "function"
    },
    {
      "inputs": [
        {
          "internalType": "address",
          "name": "",
          "type": "address"
        },
        {
          "internalType": "uint256",
          "name": "",
          "type": "uint256"
        }
      ],
      "name": "usedNonces",
      "outputs": [
        {
          "internalType": "bool",
          "name": "",
          "type": "bool"
        }
      ],
      "stateMutability": "view",
      "type": "function"
    },
    {
      "inputs": [
        {
          "components": [
            {
              "internalType": "address",
              "name": "user",
              "type": "address"
            },
            {
              "internalType": "address",
              "name": "vault",
              "type": "address"
            },
            {
              "internalType": "address",
              "name": "asset",
              "type": "address"
            },
            {
              "internalType": "uint256",
              "name": "amount",
              "type": "uint256"
            },
            {
              "internalType": "uint256",
              "name": "nonce",
              "type": "uint256"
            },
            {
              "internalType": "uint256",
              "name": "deadline",
              "type": "uint256"
            },
            {
              "internalType": "address",
              "name": "kolAddress",
              "type": "address"
            }
          ],
          "internalType": "struct DepositRouter.DepositIntent",
          "name": "intent",
          "type": "tuple"
        },
        {
          "internalType": "bytes",
          "name": "signature",
          "type": "bytes"
        }
      ],
      "name": "verifyAndDeposit",
      "outputs": [
        {
          "internalType": "bytes32",
          "name": "intentHash",
          "type": "bytes32"
        }
      ],
      "stateMutability": "nonpayable",
      "type": "function"
    }
  ],
  "bytecode": "0x6101603462000231576001600160401b0390601f6200206238819003918201601f19168301929190848411838510176200021b5781602092849260409687528339810103126200023157516001600160a01b0391828216820362000231578051916200006b8362000236565b6013835260208301917f5969656c646f4465706f736974526f75746572000000000000000000000000008352805195620000a58762000236565b6001875260208701603160f81b8152620000bf8662000252565b94610120958652620000d18962000425565b96610140978852519020978860e052519020610100978189524660a05283519160208301917f8b73c3c69bb8fe3d512ecc4cf759cc79239f7b179b0ffacaa9a75d522b39400f83528584015260608301524660808301523060a083015260a0825260c0820192828410908411176200021b57828452815190206080523060c05233156200020457505060028054336001600160a01b0319821681179092559151959091167f8be0079c531659141344cd1fd0a4f28419497f9722a3daafe3b4186f6b6457e0600080a3600580546001600160a81b03191660089290921b610100600160a81b0316919091179055611a8f9384620005d3853960805184611968015260a05184611a33015260c05184611932015260e051846119b7015251836119dd01525182610ccd01525181610cf70152f35b631e4fbdf760e01b8252600060c490910152602490fd5b634e487b7160e01b600052604160045260246000fd5b600080fd5b604081019081106001600160401b038211176200021b57604052565b80516020919082811015620002f1575090601f8251116200029057808251920151908083106200028157501790565b82600019910360031b1b161790565b90604051809263305a27a960e01b82528060048301528251908160248401526000935b828510620002d7575050604492506000838284010152601f80199101168101030190fd5b8481018201518686016044015293810193859350620002b3565b6001600160401b0381116200021b576000928354926001938481811c911680156200041a575b838210146200040657601f8111620003d0575b5081601f841160011462000369575092829391839286946200035d575b50501b916000199060031b1c191617905560ff90565b01519250388062000347565b919083601f1981168780528488209488905b88838310620003b557505050106200039b575b505050811b01905560ff90565b015160001960f88460031b161c191690553880806200038e565b8587015188559096019594850194879350908101906200037b565b85805284601f848820920160051c820191601f860160051c015b828110620003fa5750506200032a565b878155018590620003ea565b634e487b7160e01b86526022600452602486fd5b90607f169062000317565b805160209081811015620004b35750601f8251116200045257808251920151908083106200028157501790565b90604051809263305a27a960e01b82528060048301528251908160248401526000935b82851062000499575050604492506000838284010152601f80199101168101030190fd5b848101820151868601604401529381019385935062000475565b9192916001600160401b0381116200021b5760019182548381811c91168015620005c7575b82821014620005b157601f811162000578575b5080601f83116001146200052b5750819293946000926200051f575b5050600019600383901b1c191690821b17905560ff90565b01519050388062000507565b90601f198316958460005282600020926000905b8882106200056057505083859697106200039b57505050811b01905560ff90565b8087859682949686015181550195019301906200053f565b8360005283601f83600020920160051c820191601f850160051c015b828110620005a4575050620004eb565b6000815501849062000594565b634e487b7160e01b600052602260045260246000fd5b90607f1690620004d856fe608080604052600436101561001357600080fd5b600090813560e01c90816315809bce1461127f575080633d4dff7b146111e057806361d027b3146111b35780636a8a68941461116a5780636dd122b014610f70578063715018a614610f125780637a86983f14610dd757806384b0196e14610cb75780638da5cb5b14610c8e578063a64e4f8a14610c6b578063a901dd9214610c33578063bc48d13114610274578063bc5b313e14610258578063bf333f2c1461023c578063efa9c7c914610201578063f0f44260146101685763f2fde38b146100dc57600080fd5b34610165576020366003190112610165576100f561129a565b6100fd6112f0565b6001600160a01b0390811690811561014c57600280546001600160a01b031981168417909155167f8be0079c531659141344cd1fd0a4f28419497f9722a3daafe3b4186f6b6457e0600080a380f35b604051631e4fbdf760e01b815260048101849052602490fd5b80fd5b50346101655760203660031901126101655761018261129a565b61018a6112f0565b6001600160a01b038116156101c15760058054610100600160a81b03191660089290921b610100600160a81b031691909117905580f35b60405162461bcd60e51b8152602060048201526018602482015277496e76616c6964207472656173757279206164647265737360401b6044820152606490fd5b503461016557806003193601126101655760206040517fda2fd3a652e124f5c7ab3b34cb76aa4d0b1350e4294ba4220c149ee697eb765f8152f35b50346101655780600319360112610165576020604051600a8152f35b5034610165578060031936011261016557602060405160468152f35b50346101655736600319016101008112610c2f5760e013610165576001600160401b0360e435116101655736602360e435011215610165576001600160401b0360e43560040135116101655736602460e4356004013560e435010111610165576103ed6103e460426102e461154c565b6102ec611562565b6102f4611578565b6102fc61158e565b604080517fda2fd3a652e124f5c7ab3b34cb76aa4d0b1350e4294ba4220c149ee697eb765f60208201526001600160a01b03958616918101919091529284166060840152908316608083015260643560a083015260843560c083015260a43560e08301529091166101008083019190915281526103788161131c565b6020815191012061038761192f565b906040519161190160f01b83526002830152602282015220604051906103bd6020601f19601f60e435600401350116018361136e565b60e435600481013580845290602401602084013784602060e43560040135840101526117e8565b909291926118aa565b6001600160a01b036103fd61154c565b166001600160a01b0390911603610bf65761041661154c565b61041e611562565b9060405190602082019260018060601b0319809260601b168452608435603484015260601b16605482015260643560688201526068815261045e81611338565b5190206040516001600160a01b0361047461129a565b1681526024356001600160a01b038116908190036108d85760208201526044356001600160a01b03811681036108d8576001600160a01b0390811660408301526064356060830152608435608083015260a43560a083015260c43590811691908290036108d85760e09160c082015220604051907f77b30deb529738b39f11fdf750e8c570d07e9247829f3e27254c1af942cab98a8480a281835260046020526001600160401b03600660408520015416610bb9575060a4354211610b83576001600160a01b0361054361154c565b16825260036020526040822060843583528060205260ff604084205416610b4957608435835260205260408220805460ff191660011790556005546001600160a01b0361058e611562565b604051630c2b5b9160e01b81529291859116602084600481845afa938415610b3e578294610b0d575b50606435928290818060ff8316610a6e575b86939291906001600160a01b036105de611578565b169361062a6105eb61154c565b6040516323b872dd60e01b60208201526001600160a01b0390911660248201523060448201526064803581830152815261062481611338565b8661178c565b60ff84169081610a64575b506109dd575b5050508386156000146108f05750916106626106889260209461065c611562565b9061161f565b61066a61154c565b6040519485809481936385b77f4560e01b8352308a600485016115bc565b03925af19081156108e55785916108ac575b5061010060406020966007936106ae61154c565b6106b6611562565b84518881526001600160a01b0391821692909116908a907f12a72d45bda9aed3ed84d725ffaa9567763234f023b06b3a0e6e892e96c57938908d90a45b6106fb61154c565b95610704611562565b61070c611578565b61071461158e565b918651996107218b61131c565b60018060a01b03168a5260018060a01b03168c8a015260018060a01b03168589015260018060a01b03166060880152608087015260a08601526001600160401b03421660c0860152851560e0860152868386015286815260048852209260018060a01b0381511660018060a01b031990818654161785556001850160018060a01b038984015116828254161790556002850160018060a01b0360408401511682825416179055600385019060018060a01b03606084015116908254161790556080810151600485015560a08101516005850155600684016001600160401b0360c08301511681549060ff60401b60e0850151151560401b169168ffffffffffffffffff191617179055015191015561083761154c565b90827f966c783e7001983885e9373251172a1dc43c923109f5597b122a6f05deb2c4ea6080610864611562565b61086c611578565b9461087561158e565b604080516001600160a01b0398891681526064358c82015291881690820152901560608201529085169590941693a4604051908152f35b90506020813d6020116108dd575b816108c76020938361136e565b810103126108d8575161010061069a565b600080fd5b3d91506108ba565b6040513d87823e3d90fd5b9350916109056020926109359461065c611562565b61090d61154c565b9061091661158e565b918960405180968195829463680e839d60e11b84528b600485016115bc565b03925af180156109d2576109a7575b50610100604060209660079361095861154c565b610960611562565b84518881528b81018590526001600160a01b0391821692909116908a907fe2c292cf02bbf834ba6f7ec2ced56522cca2d5af8d74eaa120948b236ac5ee48908790a46106f3565b602090813d83116109cb575b6109bd818361136e565b810103126108d85738610944565b503d6109b3565b6040513d88823e3d90fd5b80151580610a4b575b610a33575b5080151580610a1d575b610a00575b8061063b565b610a169160081c6001600160a01b0316836115dc565b38806109fa565b50600882901c6001600160a01b031615156109f5565b610a4590610a3f61158e565b856115dc565b386109eb565b506001600160a01b03610a5c61158e565b1615156109e6565b9050151538610635565b50509350509050612710600a6064350204606460468202049081810393606435826064350311610af9576064358290039488949386939291906001600160a01b03610ab761158e565b168a7f774ddf8eddf46ac4eb7104c7465bad7cec14e467f440ee754363a7f91cdbba986060604051888152856020820152866040820152a390919293506105c9565b634e487b7160e01b88526011600452602488fd5b610b3091945060203d602011610b37575b610b28818361136e565b8101906115a4565b92386105b7565b503d610b1e565b6040513d84823e3d90fd5b60405162461bcd60e51b8152602060048201526012602482015271139bdb98d948185b1c9958591e481d5cd95960721b6044820152606490fd5b60405162461bcd60e51b815260206004820152600e60248201526d125b9d195b9d08195e1c1a5c995960921b6044820152606490fd5b62461bcd60e51b815260206004820152601860248201527711195c1bdcda5d08185b1c9958591e48195e1958dd5d195960421b6044820152606490fd5b60405162461bcd60e51b8152602060048201526011602482015270496e76616c6964207369676e617475726560781b6044820152606490fd5b5080fd5b503461016557602036600319011261016557600435801515809103610c2f57610c5a6112f0565b60ff80196005541691161760055580f35b5034610165578060031936011261016557602060ff600554166040519015158152f35b50346101655780600319360112610165576002546040516001600160a01b039091168152602090f35b5034610165578060031936011261016557610cf17f000000000000000000000000000000000000000000000000000000000000000061138f565b90610d1b7f0000000000000000000000000000000000000000000000000000000000000000611497565b9060405190602090818301938385106001600160401b03861117610dc15792828593610d778896610d6998604052858552604051988998600f60f81b8a5260e0858b015260e08a01906112b0565b9088820360408a01526112b0565b924660608801523060808801528460a088015286840360c088015251928381520193925b828110610daa57505050500390f35b835185528695509381019392810192600101610d9b565b634e487b7160e01b600052604160045260246000fd5b50346101655760203660031901126101655780604051610df68161131c565b8181528160208201528160408201528160608201528160808201528160a08201528160c08201528160e082015261010001526004358152600460205260409020604051610e428161131c565b600160a01b60019003808354169283835281600182015416602084019081528260028301541692604085019384528060038401541690606086019182526004840154906080870191825260058501549260a08801938452816006870154978160c08b01976001600160401b03998a8c168a5260e08d019b60401c60ff1615158c52600701549b610100019b8c526040519c8d52511660208c0152511660408a0152511660608801525160808701525160a0860152511660c084015251151560e08301525161010082015261012090f35b5034610165578060031936011261016557610f2b6112f0565b600280546001600160a01b031981169091556000906001600160a01b03167f8be0079c531659141344cd1fd0a4f28419497f9722a3daafe3b4186f6b6457e08280a380f35b503461016557602080600319360112610c2f5760043580835260048252604083209060068201546001600160401b0390818116156111315760401c60ff16156110f55760018060a01b03938460018501541694600460058601549186541695015492604051630c2b5b9160e01b815283816004818b5afa9081156110ea5789916110cd575b501561109657863b15611092576040519163617d5c6b60e11b835260048301528782602481838b5af180156110875761105e575b50507fe2c292cf02bbf834ba6f7ec2ced56522cca2d5af8d74eaa120948b236ac5ee489160016040928351928352820152a480f35b81979297116110735760405294816001611029565b634e487b7160e01b82526041600452602482fd5b6040513d8a823e3d90fd5b8780fd5b60405162461bcd60e51b815260048101849052600f60248201526e5661756c74206e6f7420726561647960881b6044820152606490fd5b6110e49150843d8611610b3757610b28818361136e565b38610ff5565b6040513d8b823e3d90fd5b60405162461bcd60e51b8152600481018590526014602482015273139bdd08185b88185cde5b98c819195c1bdcda5d60621b6044820152606490fd5b60405162461bcd60e51b815260048101869052601160248201527011195c1bdcda5d081b9bdd08199bdd5b99607a1b6044820152606490fd5b50346101655760403660031901126101655760209060ff906040906001600160a01b0361119561129a565b16815260038452818120602435825284522054166040519015158152f35b503461016557806003193601126101655760055460405160089190911c6001600160a01b03168152602090f35b503461016557602036600319011261016557604061012091600435815260046020522060018060a01b0360ff8183541692826001820154169280600283015416906003830154166004830154906005840154926007600686015495015496604051988952602089015260408801526060870152608086015260a08501526001600160401b03811660c085015260401c16151560e0830152610100820152f35b905034610c2f5781600319360112610c2f5780601e60209252f35b600435906001600160a01b03821682036108d857565b919082519283825260005b8481106112dc575050826000602080949584010152601f8019910116010190565b6020818301810151848301820152016112bb565b6002546001600160a01b0316330361130457565b60405163118cdaa760e01b8152336004820152602490fd5b61012081019081106001600160401b03821117610dc157604052565b60a081019081106001600160401b03821117610dc157604052565b604081019081106001600160401b03821117610dc157604052565b90601f801991011681019081106001600160401b03821117610dc157604052565b60ff81146113cd5760ff811690601f82116113bb57604051916113b183611353565b8252602082015290565b604051632cd44ac360e21b8152600490fd5b506040516000805490600182811c9080841693841561148d575b60209485841081146114795783875286949392918115611459575060011461141b575b50506114189250038261136e565b90565b600080805285812095935091905b8183106114415750506114189350820101388061140a565b85548784018501529485019486945091830191611429565b91505061141894925060ff191682840152151560051b820101388061140a565b634e487b7160e01b85526022600452602485fd5b91607f16916113e7565b60ff81146114b95760ff811690601f82116113bb57604051916113b183611353565b50604051600060019081549182811c90808416938415611542575b6020948584108114611479578387528694939291811561145957506001146115045750506114189250038261136e565b600081815285812095935091905b81831061152a5750506114189350820101388061140a565b85548784018501529485019486945091830191611512565b91607f16916114d4565b6004356001600160a01b03811681036108d85790565b6024356001600160a01b03811681036108d85790565b6044356001600160a01b03811681036108d85790565b60c4356001600160a01b03811681036108d85790565b908160209103126108d8575180151581036108d85790565b9081526001600160a01b0391821660208201529116604082015260600190565b60405163a9059cbb60e01b60208201526001600160a01b0392909216602483015260448083019390935291815261161d9161161860648361136e565b61178c565b565b604051636eb1769f60e11b81523060048201526001600160a01b03838116602483018190526020959294909290918416908686604481855afa95861561178057600096611751575b50850180951161173b5760405163095ea7b360e01b8782018181526001600160a01b03949094166024830152604480830197909752958152949186906000906116b160648961136e565b87519082885af1903d600051908361171c575b505050156116d4575b5050505050565b6040519485015260248401526000604484015260448352608083018381106001600160401b03821117610dc15761171293611618916040528261178c565b38808080806116cd565b9192509061173157503b15155b3880806116c4565b6001915014611729565b634e487b7160e01b600052601160045260246000fd5b90958782813d8311611779575b611768818361136e565b810103126101655750519438611667565b503d61175e565b6040513d6000823e3d90fd5b906000602091828151910182855af115611780576000513d6117df57506001600160a01b0381163b155b6117bd5750565b604051635274afe760e01b81526001600160a01b039091166004820152602490fd5b600114156117b6565b81519190604183036118195761181292506020820151906060604084015193015160001a90611824565b9192909190565b505060009160029190565b91906fa2a8918ca85bafe22016d0b997e4df60600160ff1b03841161189e57926020929160ff608095604051948552168484015260408301526060820152600092839182805260015afa156118925780516001600160a01b0381161561188957918190565b50809160019190565b604051903d90823e3d90fd5b50505060009160039190565b600481101561191957806118bc575050565b600181036118d65760405163f645eedf60e01b8152600490fd5b600281036118f75760405163fce698f760e01b815260048101839052602490fd5b6003146119015750565b602490604051906335e2f38360e21b82526004820152fd5b634e487b7160e01b600052602160045260246000fd5b307f00000000000000000000000000000000000000000000000000000000000000006001600160a01b03161480611a30575b1561198a577f000000000000000000000000000000000000000000000000000000000000000090565b60405160208101907f8b73c3c69bb8fe3d512ecc4cf759cc79239f7b179b0ffacaa9a75d522b39400f82527f000000000000000000000000000000000000000000000000000000000000000060408201527f000000000000000000000000000000000000000000000000000000000000000060608201524660808201523060a082015260a0815260c081018181106001600160401b03821117610dc15760405251902090565b507f0000000000000000000000000000000000000000000000000000000000000000461461196156fea2646970667358221220cf8ac196dd7341ebe99c0ae34c488e8304bb528a4c70258e4c18e124ed89516964736f6c63430008140033",
  "linkReferences": {},
  "deployedLinkReferences": {}
}